{
  "_format": "hh-sol-artifact-1",
  "contractName": "ZKUNFT",
  "sourceName": "contracts/ZKUNFT.sol",
  "abi": [
    {
      "inputs": [],
      "stateMutability": "nonpayable",
      "type": "constructor"
    },
    {
      "anonymous": false,
      "inputs": [
        {
          "indexed": true,
          "internalType": "address",
          "name": "owner",
          "type": "address"
        },
        {
          "indexed": true,
          "internalType": "address",
          "name": "approved",
          "type": "address"
        },
        {
          "indexed": true,
          "internalType": "uint256",
          "name": "tokenId",
          "type": "uint256"
        }
      ],
      "name": "Approval",
      "type": "event"
    },
    {
      "anonymous": false,
      "inputs": [
        {
          "indexed": true,
          "internalType": "address",
          "name": "owner",
          "type": "address"
        },
        {
          "indexed": true,
          "internalType": "address",
          "name": "operator",
          "type": "address"
        },
        {
          "indexed": false,
          "internalType": "bool",
          "name": "approved",
          "type": "bool"
        }
      ],
      "name": "ApprovalForAll",
      "type": "event"
    },
    {
      "anonymous": false,
      "inputs": [
        {
          "indexed": true,
          "internalType": "address",
          "name": "from",
          "type": "address"
        },
        {
          "indexed": true,
          "internalType": "address",
          "name": "to",
          "type": "address"
        },
        {
          "indexed": true,
          "internalType": "uint256",
          "name": "tokenId",
          "type": "uint256"
        }
      ],
      "name": "Transfer",
      "type": "event"
    },
    {
      "inputs": [],
      "name": "NFTsLeft",
      "outputs": [
        {
          "internalType": "uint256",
          "name": "",
          "type": "uint256"
        }
      ],
      "stateMutability": "view",
      "type": "function"
    },
    {
      "inputs": [
        {
          "internalType": "address",
          "name": "to",
          "type": "address"
        },
        {
          "internalType": "uint256",
          "name": "tokenId",
          "type": "uint256"
        }
      ],
      "name": "approve",
      "outputs": [],
      "stateMutability": "nonpayable",
      "type": "function"
    },
    {
      "inputs": [
        {
          "internalType": "address",
          "name": "owner",
          "type": "address"
        }
      ],
      "name": "balanceOf",
      "outputs": [
        {
          "internalType": "uint256",
          "name": "",
          "type": "uint256"
        }
      ],
      "stateMutability": "view",
      "type": "function"
    },
    {
      "inputs": [
        {
          "internalType": "uint256",
          "name": "tokenId",
          "type": "uint256"
        }
      ],
      "name": "getApproved",
      "outputs": [
        {
          "internalType": "address",
          "name": "",
          "type": "address"
        }
      ],
      "stateMutability": "view",
      "type": "function"
    },
    {
      "inputs": [],
      "name": "getLeaves",
      "outputs": [
        {
          "internalType": "bytes32[8]",
          "name": "",
          "type": "bytes32[8]"
        }
      ],
      "stateMutability": "view",
      "type": "function"
    },
    {
      "inputs": [],
      "name": "getLeavesLength",
      "outputs": [
        {
          "internalType": "uint256",
          "name": "",
          "type": "uint256"
        }
      ],
      "stateMutability": "view",
      "type": "function"
    },
    {
      "inputs": [],
      "name": "getRoot",
      "outputs": [
        {
          "internalType": "bytes32",
          "name": "",
          "type": "bytes32"
        }
      ],
      "stateMutability": "view",
      "type": "function"
    },
    {
      "inputs": [],
      "name": "getTree",
      "outputs": [
        {
          "internalType": "bytes32[]",
          "name": "",
          "type": "bytes32[]"
        }
      ],
      "stateMutability": "view",
      "type": "function"
    },
    {
      "inputs": [],
      "name": "getTreeLength",
      "outputs": [
        {
          "internalType": "uint256",
          "name": "",
          "type": "uint256"
        }
      ],
      "stateMutability": "view",
      "type": "function"
    },
    {
      "inputs": [
        {
          "internalType": "address",
          "name": "owner",
          "type": "address"
        },
        {
          "internalType": "address",
          "name": "operator",
          "type": "address"
        }
      ],
      "name": "isApprovedForAll",
      "outputs": [
        {
          "internalType": "bool",
          "name": "",
          "type": "bool"
        }
      ],
      "stateMutability": "view",
      "type": "function"
    },
    {
      "inputs": [
        {
          "internalType": "uint256",
          "name": "",
          "type": "uint256"
        }
      ],
      "name": "leafData",
      "outputs": [
        {
          "internalType": "address",
          "name": "from",
          "type": "address"
        },
        {
          "internalType": "address",
          "name": "receiver",
          "type": "address"
        },
        {
          "internalType": "uint256",
          "name": "id",
          "type": "uint256"
        },
        {
          "internalType": "string",
          "name": "tokenURI",
          "type": "string"
        }
      ],
      "stateMutability": "view",
      "type": "function"
    },
    {
      "inputs": [
        {
          "internalType": "address",
          "name": "receiver",
          "type": "address"
        },
        {
          "internalType": "string",
          "name": "_name",
          "type": "string"
        },
        {
          "internalType": "string",
          "name": "_description",
          "type": "string"
        }
      ],
      "name": "mintNFT",
      "outputs": [],
      "stateMutability": "nonpayable",
      "type": "function"
    },
    {
      "inputs": [],
      "name": "name",
      "outputs": [
        {
          "internalType": "string",
          "name": "",
          "type": "string"
        }
      ],
      "stateMutability": "view",
      "type": "function"
    },
    {
      "inputs": [
        {
          "internalType": "uint256",
          "name": "tokenId",
          "type": "uint256"
        }
      ],
      "name": "ownerOf",
      "outputs": [
        {
          "internalType": "address",
          "name": "",
          "type": "address"
        }
      ],
      "stateMutability": "view",
      "type": "function"
    },
    {
      "inputs": [],
      "name": "root",
      "outputs": [
        {
          "internalType": "bytes32",
          "name": "",
          "type": "bytes32"
        }
      ],
      "stateMutability": "view",
      "type": "function"
    },
    {
      "inputs": [
        {
          "internalType": "address",
          "name": "from",
          "type": "address"
        },
        {
          "internalType": "address",
          "name": "to",
          "type": "address"
        },
        {
          "internalType": "uint256",
          "name": "tokenId",
          "type": "uint256"
        }
      ],
      "name": "safeTransferFrom",
      "outputs": [],
      "stateMutability": "nonpayable",
      "type": "function"
    },
    {
      "inputs": [
        {
          "internalType": "address",
          "name": "from",
          "type": "address"
        },
        {
          "internalType": "address",
          "name": "to",
          "type": "address"
        },
        {
          "internalType": "uint256",
          "name": "tokenId",
          "type": "uint256"
        },
        {
          "internalType": "bytes",
          "name": "_data",
          "type": "bytes"
        }
      ],
      "name": "safeTransferFrom",
      "outputs": [],
      "stateMutability": "nonpayable",
      "type": "function"
    },
    {
      "inputs": [
        {
          "internalType": "address",
          "name": "operator",
          "type": "address"
        },
        {
          "internalType": "bool",
          "name": "approved",
          "type": "bool"
        }
      ],
      "name": "setApprovalForAll",
      "outputs": [],
      "stateMutability": "nonpayable",
      "type": "function"
    },
    {
      "inputs": [
        {
          "internalType": "bytes4",
          "name": "interfaceId",
          "type": "bytes4"
        }
      ],
      "name": "supportsInterface",
      "outputs": [
        {
          "internalType": "bool",
          "name": "",
          "type": "bool"
        }
      ],
      "stateMutability": "view",
      "type": "function"
    },
    {
      "inputs": [],
      "name": "symbol",
      "outputs": [
        {
          "internalType": "string",
          "name": "",
          "type": "string"
        }
      ],
      "stateMutability": "view",
      "type": "function"
    },
    {
      "inputs": [
        {
          "internalType": "uint256",
          "name": "newTokenId",
          "type": "uint256"
        }
      ],
      "name": "tokenURI",
      "outputs": [
        {
          "internalType": "string",
          "name": "",
          "type": "string"
        }
      ],
      "stateMutability": "view",
      "type": "function"
    },
    {
      "inputs": [
        {
          "internalType": "address",
          "name": "from",
          "type": "address"
        },
        {
          "internalType": "address",
          "name": "to",
          "type": "address"
        },
        {
          "internalType": "uint256",
          "name": "tokenId",
          "type": "uint256"
        }
      ],
      "name": "transferFrom",
      "outputs": [],
      "stateMutability": "nonpayable",
      "type": "function"
    },
    {
      "inputs": [
        {
          "internalType": "bytes32[]",
          "name": "proof",
          "type": "bytes32[]"
        },
        {
          "internalType": "bytes32",
          "name": "_root",
          "type": "bytes32"
        },
        {
          "internalType": "bytes32",
          "name": "leaf",
          "type": "bytes32"
        }
      ],
      "name": "verify",
      "outputs": [
        {
          "internalType": "bool",
          "name": "",
          "type": "bool"
        }
      ],
      "stateMutability": "pure",
      "type": "function"
    }
  ],
  "bytecode": "0x60806040523480156200001157600080fd5b5060408051808201825260068152651692d553919560d21b602080830191825283518085019094526004845263245a4b5560e01b9084015281519192916200005c9160009162000085565b5080516200007290600190602084019062000085565b50506008600c819055600a555062000168565b82805462000093906200012b565b90600052602060002090601f016020900481019282620000b7576000855562000102565b82601f10620000d257805160ff191683800117855562000102565b8280016001018555821562000102579182015b8281111562000102578251825591602001919060010190620000e5565b506200011092915062000114565b5090565b5b8082111562000110576000815560010162000115565b600181811c908216806200014057607f821691505b602082108114156200016257634e487b7160e01b600052602260045260246000fd5b50919050565b611ee580620001786000396000f3fe608060405234801561001057600080fd5b506004361061014d5760003560e01c806370a08231116100c3578063b21000a91161007c578063b21000a9146102ac578063b88d4fde146102b4578063c87b56dd146102c7578063c8efb691146102da578063e985e9c5146102fd578063ebf0c7171461033957600080fd5b806370a082311461024f5780637aa149321461026257806395d89b4114610269578063a22cb46514610271578063a3ee38ae14610284578063ad2b30371461029757600080fd5b806323b872dd1161011557806323b872dd146101e457806342842e0e146101f75780635a9a49c71461020a5780635ca1e1651461021d5780636352211e1461023357806364f0100a1461024657600080fd5b806301ffc9a71461015257806306fdde031461017a578063081812fc1461018f578063095ea7b3146101ba5780631911d176146101cf575b600080fd5b61016561016036600461193e565b610342565b60405190151581526020015b60405180910390f35b610182610394565b6040516101719190611b84565b6101a261019d366004611978565b610426565b6040516001600160a01b039091168152602001610171565b6101cd6101c8366004611857565b6104c0565b005b6101d76105d6565b6040516101719190611b40565b6101cd6101f23660046116ef565b61062d565b6101cd6102053660046116ef565b61065e565b610165610218366004611881565b610679565b61022561068e565b604051908152602001610171565b6101a2610241366004611978565b6106c2565b610225600a5481565b61022561025d3660046116a1565b610739565b6008610225565b6101826107c0565b6101cd61027f3660046117a7565b6107cf565b6101cd6102923660046117e3565b6107de565b61029f6108dd565b6040516101719190611b0e565b600e54610225565b6101cd6102c236600461172b565b610914565b6101826102d5366004611978565b61094c565b6102ed6102e8366004611978565b6109b6565b6040516101719493929190611ad1565b61016561030b3660046116bc565b6001600160a01b03918216600090815260056020908152604080832093909416825291909152205460ff1690565b610225600b5481565b60006001600160e01b031982166380ac58cd60e01b148061037357506001600160e01b03198216635b5e139f60e01b145b8061038e57506301ffc9a760e01b6001600160e01b03198316145b92915050565b6060600080546103a390611dbe565b80601f01602080910402602001604051908101604052809291908181526020018280546103cf90611dbe565b801561041c5780601f106103f15761010080835404028352916020019161041c565b820191906000526020600020905b8154815290600101906020018083116103ff57829003601f168201915b5050505050905090565b6000818152600260205260408120546001600160a01b03166104a45760405162461bcd60e51b815260206004820152602c60248201527f4552433732313a20617070726f76656420717565727920666f72206e6f6e657860448201526b34b9ba32b73a103a37b5b2b760a11b60648201526084015b60405180910390fd5b506000908152600460205260409020546001600160a01b031690565b60006104cb826106c2565b9050806001600160a01b0316836001600160a01b031614156105395760405162461bcd60e51b815260206004820152602160248201527f4552433732313a20617070726f76616c20746f2063757272656e74206f776e656044820152603960f91b606482015260840161049b565b336001600160a01b03821614806105555750610555813361030b565b6105c75760405162461bcd60e51b815260206004820152603860248201527f4552433732313a20617070726f76652063616c6c6572206973206e6f74206f7760448201527f6e6572206e6f7220617070726f76656420666f7220616c6c0000000000000000606482015260840161049b565b6105d18383610a75565b505050565b6060600e80548060200260200160405190810160405280929190818152602001828054801561041c57602002820191906000526020600020905b815481526020019060010190808311610610575050505050905090565b6106373382610ae3565b6106535760405162461bcd60e51b815260040161049b90611be9565b6105d1838383610bd6565b6105d183838360405180602001604052806000815250610914565b6000610686848484610d72565b949350505050565b600e8054600091906106a290600190611d7b565b815481106106b2576106b2611e2a565b9060005260206000200154905090565b6000818152600260205260408120546001600160a01b03168061038e5760405162461bcd60e51b815260206004820152602960248201527f4552433732313a206f776e657220717565727920666f72206e6f6e657869737460448201526832b73a103a37b5b2b760b91b606482015260840161049b565b60006001600160a01b0382166107a45760405162461bcd60e51b815260206004820152602a60248201527f4552433732313a2062616c616e636520717565727920666f7220746865207a65604482015269726f206164647265737360b01b606482015260840161049b565b506001600160a01b031660009081526003602052604090205490565b6060600180546103a390611dbe565b6107da338383610d88565b5050565b600754600814156108315760405162461bcd60e51b815260206004820152601860248201527f416c6c204e465473206d696e74656420616c72656164792e0000000000000000604482015260640161049b565b33600061083d60075490565b905061084d600780546001019055565b6108578582610e57565b6001600a600082825461086a9190611d7b565b909155505060408051808201825285815260208082018690526000848152600882529290922081518051929391926108a5928492019061150e565b5060208281015180516108be926001850192019061150e565b509050506108d68286836108d18561094c565b610e71565b5050505050565b6108e5611592565b604080516101008101918290526010805482529091600890601160208501808311610610575050505050905090565b61091e3383610ae3565b61093a5760405162461bcd60e51b815260040161049b90611be9565b61094684848484610f03565b50505050565b600081815260086020908152604080832090516060939261098c92610978929091600183019101611a2c565b604051602081830303815290604052610f36565b90508060405160200161099f9190611a8c565b604051602081830303815290604052915050919050565b60096020526000908152604090208054600182015460028301546003840180546001600160a01b0394851695949093169391926109f290611dbe565b80601f0160208091040260200160405190810160405280929190818152602001828054610a1e90611dbe565b8015610a6b5780601f10610a4057610100808354040283529160200191610a6b565b820191906000526020600020905b815481529060010190602001808311610a4e57829003601f168201915b5050505050905084565b600081815260046020526040902080546001600160a01b0319166001600160a01b0384169081179091558190610aaa826106c2565b6001600160a01b03167f8c5be1e5ebec7d5bd14f71427d1e84f3dd0314c0f7b2291e5b200ac8c7c3b92560405160405180910390a45050565b6000818152600260205260408120546001600160a01b0316610b5c5760405162461bcd60e51b815260206004820152602c60248201527f4552433732313a206f70657261746f7220717565727920666f72206e6f6e657860448201526b34b9ba32b73a103a37b5b2b760a11b606482015260840161049b565b6000610b67836106c2565b9050806001600160a01b0316846001600160a01b03161480610ba25750836001600160a01b0316610b9784610426565b6001600160a01b0316145b8061068657506001600160a01b0380821660009081526005602090815260408083209388168352929052205460ff16610686565b826001600160a01b0316610be9826106c2565b6001600160a01b031614610c4d5760405162461bcd60e51b815260206004820152602560248201527f4552433732313a207472616e736665722066726f6d20696e636f72726563742060448201526437bbb732b960d91b606482015260840161049b565b6001600160a01b038216610caf5760405162461bcd60e51b8152602060048201526024808201527f4552433732313a207472616e7366657220746f20746865207a65726f206164646044820152637265737360e01b606482015260840161049b565b610cba600082610a75565b6001600160a01b0383166000908152600360205260408120805460019290610ce3908490611d7b565b90915550506001600160a01b0382166000908152600360205260408120805460019290610d11908490611d22565b909155505060008181526002602052604080822080546001600160a01b0319166001600160a01b0386811691821790925591518493918716917fddf252ad1be2c89b69c2b068fc378daa952ba7f163c4a11628f55a4df523b3ef91a4505050565b600082610d7f858461108a565b14949350505050565b816001600160a01b0316836001600160a01b03161415610dea5760405162461bcd60e51b815260206004820152601960248201527f4552433732313a20617070726f766520746f2063616c6c657200000000000000604482015260640161049b565b6001600160a01b03838116600081815260056020908152604080832094871680845294825291829020805460ff191686151590811790915591519182527f17307eab39ab6107e8899845ad3d59bd9653f200f220920489ca2b5937696c31910160405180910390a3505050565b6107da8282604051806020016040528060008152506110fe565b604080516080810182526001600160a01b03808716825285811660208084019182528385018781526060850187815260008981526009845296909620855181549086166001600160a01b03199182161782559351600182018054919096169416939093179093559151600282015592518051929392610ef6926003850192019061150e565b5090505061094682611131565b610f0e848484610bd6565b610f1a848484846111bb565b6109465760405162461bcd60e51b815260040161049b90611b97565b6060815160001415610f5657505060408051602081019091526000815290565b6000604051806060016040528060408152602001611e706040913990506000600384516002610f859190611d22565b610f8f9190611d3a565b610f9a906004611d5c565b67ffffffffffffffff811115610fb257610fb2611e40565b6040519080825280601f01601f191660200182016040528015610fdc576020820181803683370190505b509050600182016020820185865187015b80821015611048576003820191508151603f8160121c168501518453600184019350603f81600c1c168501518453600184019350603f8160061c168501518453600184019350603f8116850151845350600183019250610fed565b505060038651066001811461106457600281146110775761107f565b603d6001830353603d600283035361107f565b603d60018303535b509195945050505050565b600081815b84518110156110f65760008582815181106110ac576110ac611e2a565b602002602001015190508083116110d257600083815260208290526040902092506110e3565b600081815260208490526040902092505b50806110ee81611df9565b91505061108f565b509392505050565b61110883836112c8565b61111560008484846111bb565b6105d15760405162461bcd60e51b815260040161049b90611b97565b6000818152600960209081526040808320905161114e9201611c3a565b60408051601f198184030181529190528051602090910120600f80546001810182556000919091527f8d1108e10bcb7c27dddfc02ed9d693a074039d026cf4ea4240b40f7d581ac80201819055905080601083600881106111b1576111b1611e2a565b01556107da61140a565b60006001600160a01b0384163b156112bd57604051630a85bd0160e11b81526001600160a01b0385169063150b7a02906111ff903390899088908890600401611ad1565b602060405180830381600087803b15801561121957600080fd5b505af1925050508015611249575060408051601f3d908101601f191682019092526112469181019061195b565b60015b6112a3573d808015611277576040519150601f19603f3d011682016040523d82523d6000602084013e61127c565b606091505b50805161129b5760405162461bcd60e51b815260040161049b90611b97565b805181602001fd5b6001600160e01b031916630a85bd0160e11b149050610686565b506001949350505050565b6001600160a01b03821661131e5760405162461bcd60e51b815260206004820181905260248201527f4552433732313a206d696e7420746f20746865207a65726f2061646472657373604482015260640161049b565b6000818152600260205260409020546001600160a01b0316156113835760405162461bcd60e51b815260206004820152601c60248201527f4552433732313a20746f6b656e20616c7265616479206d696e74656400000000604482015260640161049b565b6001600160a01b03821660009081526003602052604081208054600192906113ac908490611d22565b909155505060008181526002602052604080822080546001600160a01b0319166001600160a01b03861690811790915590518392907fddf252ad1be2c89b69c2b068fc378daa952ba7f163c4a11628f55a4df523b3ef908290a45050565b600f805461141a91600e916115b1565b50600e5460005b81156107da5760005b611435600184611d7b565b8110156114ef57600e806114498385611d22565b8154811061145957611459611e2a565b9060005260206000200154600e83856114729190611d22565b61147d906001611d22565b8154811061148d5761148d611e2a565b90600052602060002001546040516020016114b2929190918252602082015260400190565b60408051601f198184030181529190528051602091820120825460018101845560009384529190922001556114e8600282611d22565b905061142a565b506114fa8282611d22565b9050611507600283611d3a565b9150611421565b82805461151a90611dbe565b90600052602060002090601f01602090048101928261153c5760008555611582565b82601f1061155557805160ff1916838001178555611582565b82800160010185558215611582579182015b82811115611582578251825591602001919060010190611567565b5061158e9291506115f1565b5090565b6040518061010001604052806008906020820280368337509192915050565b8280548282559060005260206000209081019282156115825760005260206000209182015b828111156115825782548255916001019190600101906115d6565b5b8082111561158e57600081556001016115f2565b600067ffffffffffffffff83111561162057611620611e40565b611633601f8401601f1916602001611cf1565b905082815283838301111561164757600080fd5b828260208301376000602084830101529392505050565b80356001600160a01b038116811461167557600080fd5b919050565b600082601f83011261168b57600080fd5b61169a83833560208501611606565b9392505050565b6000602082840312156116b357600080fd5b61169a8261165e565b600080604083850312156116cf57600080fd5b6116d88361165e565b91506116e66020840161165e565b90509250929050565b60008060006060848603121561170457600080fd5b61170d8461165e565b925061171b6020850161165e565b9150604084013590509250925092565b6000806000806080858703121561174157600080fd5b61174a8561165e565b93506117586020860161165e565b925060408501359150606085013567ffffffffffffffff81111561177b57600080fd5b8501601f8101871361178c57600080fd5b61179b87823560208401611606565b91505092959194509250565b600080604083850312156117ba57600080fd5b6117c38361165e565b9150602083013580151581146117d857600080fd5b809150509250929050565b6000806000606084860312156117f857600080fd5b6118018461165e565b9250602084013567ffffffffffffffff8082111561181e57600080fd5b61182a8783880161167a565b9350604086013591508082111561184057600080fd5b5061184d8682870161167a565b9150509250925092565b6000806040838503121561186a57600080fd5b6118738361165e565b946020939093013593505050565b60008060006060848603121561189657600080fd5b833567ffffffffffffffff808211156118ae57600080fd5b818601915086601f8301126118c257600080fd5b81356020828211156118d6576118d6611e40565b8160051b92506118e7818401611cf1565b8281528181019085830185870184018c101561190257600080fd5b600096505b84871015611925578035835260019690960195918301918301611907565b509a918901359950506040909701359695505050505050565b60006020828403121561195057600080fd5b813561169a81611e56565b60006020828403121561196d57600080fd5b815161169a81611e56565b60006020828403121561198a57600080fd5b5035919050565b600081518084526119a9816020860160208601611d92565b601f01601f19169290920160200192915050565b600081546119ca81611dbe565b600182811680156119e257600181146119f357611a22565b60ff19841687528287019450611a22565b8560005260208060002060005b85811015611a195781548a820152908401908201611a00565b50505082870194505b5050505092915050565b693d913730b6b2911d101160b11b81526000611a4b600a8301856119bd565b61088b60f21b81526e0113232b9b1b934b83a34b7b7111d1608d1b6002820152611a7860118201856119bd565b611f4b60f21b815260020195945050505050565b7f646174613a6170706c69636174696f6e2f6a736f6e3b6261736536342c000000815260008251611ac481601d850160208701611d92565b91909101601d0192915050565b6001600160a01b0385811682528416602082015260408101839052608060608201819052600090611b0490830184611991565b9695505050505050565b6101008101818360005b6008811015611b37578151835260209283019290910190600101611b18565b50505092915050565b6020808252825182820181905260009190848201906040850190845b81811015611b7857835183529284019291840191600101611b5c565b50909695505050505050565b60208152600061169a6020830184611991565b60208082526032908201527f4552433732313a207472616e7366657220746f206e6f6e20455243373231526560408201527131b2b4bb32b91034b6b83632b6b2b73a32b960711b606082015260800190565b60208082526031908201527f4552433732313a207472616e736665722063616c6c6572206973206e6f74206f6040820152701ddb995c881b9bdc88185c1c1c9bdd9959607a1b606082015260800190565b6000602080835260018060a01b038085541682850152600181818701541660408601526002860154606086015260038601915060808086015260008254611c8081611dbe565b8060a089015260c084831660008114611ca05760018114611cb457611ce2565b60ff1984168a83015260e08a019450611ce2565b866000528760002060005b84811015611cda5781548c8201850152908701908901611cbf565b8b0183019550505b50929998505050505050505050565b604051601f8201601f1916810167ffffffffffffffff81118282101715611d1a57611d1a611e40565b604052919050565b60008219821115611d3557611d35611e14565b500190565b600082611d5757634e487b7160e01b600052601260045260246000fd5b500490565b6000816000190483118215151615611d7657611d76611e14565b500290565b600082821015611d8d57611d8d611e14565b500390565b60005b83811015611dad578181015183820152602001611d95565b838111156109465750506000910152565b600181811c90821680611dd257607f821691505b60208210811415611df357634e487b7160e01b600052602260045260246000fd5b50919050565b6000600019821415611e0d57611e0d611e14565b5060010190565b634e487b7160e01b600052601160045260246000fd5b634e487b7160e01b600052603260045260246000fd5b634e487b7160e01b600052604160045260246000fd5b6001600160e01b031981168114611e6c57600080fd5b5056fe4142434445464748494a4b4c4d4e4f505152535455565758595a6162636465666768696a6b6c6d6e6f707172737475767778797a303132333435363738392b2fa2646970667358221220a8498aa74772e1d3dcef89099cafa30608a3fc515cffb2f8e62568aa60a6816264736f6c63430008070033",
  "linkReferences": {},
  "deployedLinkReferences": {}
}